:020000040800F2
:100000005808002049010008990D0008910D0008CA
:10001000950D0008CD010008D51100080000000072
:100020000000000000000000000000004110000877
:10003000D10100080000000015100008DF100008C2
:100040006301000863010008630100086301000800
:1000500063010008630100086301000863010008F0
:1000600063010008630100086301000863010008E0
:1000700063010008630100086301000863010008D0
:10008000630100086301000863010008000000002C
:1000900000000000000000000000000063010008F4
:1000A00063010008630100086301000863010008A0
:1000B0006301000863010008630100086301000890
:1000C0006301000863010008630100086301000880
:1000D0006301000863010008630100086301000870
:1000E0006301000863010008630100086301000860
:1000F0006301000863010008000000000000000028
:100100000000000000000000630100086301000817
:10011000630100086301000863010008630100082F
:10012000630100086301000863010008630100081F
:1001300063010008DFF80CD000F036F800480047F3
:10014000FB11000858080020064880470648004771
:10015000FEE7FEE7FEE7FEE7FEE7FEE7FEE7FEE777
:10016000FEE7FEE77911000835010008202A04DBCC
:10017000203A21FA02F00021704721FA02F3D04020
:10018000C2F12002914008431946704730B5044639
:100190000020034600E05B1C934203D2E05CCD5C90
:1001A000401BF8D030BD0000064C074D06E0E0686B
:1001B00040F0010394E8070098471034AC42F6D3AE
:1001C000FFF7BCFF241200084412000800BFFEE73E
:1001D000704700000021074AD1610749096941F0D1
:1001E0000401054A11611146096941F0400111619C
:1001F0007047000020000020002002400021074A34
:10020000D1610749096941F00201054A11611146AE
:100210004861096941F040011161704720000020E8
:10022000002002400022054BDA61054A126942F0C3
:100230000102034B1A61018070470000200000207A
:100240000020024000201E49C96801F0100139B1A8
:100250001C49C96941F002011A4AD16140F01000FD
:100260001749C96801F0040139B11649C96941F05B
:100270000101144AD16140F004001149C96901F03B
:10028000010169B10F49C96941F004010D4AD16109
:1002900000BF0B49C96921F00101094AD16100BFC2
:1002A00000BF40F20111884206D10549C96921F019
:1002B0000101034AD16101E00149C86000BF7047F4
:1002C000002002402000002070B5044600F006F92E
:1002D000054609E0601C38B124B100F0FFF8401B6E
:1002E000A04201D9032070BD1248C06800F001008F
:1002F0000028EFD10F48C06800F0200020B100BFF7
:1003000020200C49C86000BF0A48C06800F01000F7
:1003100048B90848C06900F0010020B90548C06824
:1003200000F0040018B1FFF78DFF0120DBE700208B
:10033000D9E70000002002402DE9F04104460E46B6
:100340000127002500BF2648007E012802D1022097
:10035000BDE8F08101202249087600BF206802280C
:1003600013D14CF25030FFF7AFFF90BB0120FFF7E5
:1003700031FF4CF25030FFF7A7FF074619480069DC
:1003800020F004001749086123E04CF25030FFF7D9
:100390009BFFF0B94FF0FF303060A56812E02846AF
:1003A000FFF72CFF4CF25030FFF78EFF07460D4849
:1003B000006920F002000B4908610FB1356007E0C9
:1003C00005F50065D4E9021001EBC020A842E6D88B
:1003D00000BF00BF00200249087600BF3846B7E7DB
:1003E00020000020002002400348006940F0800007
:1003F0000149086100207047002002402DE9FE4FAE
:1004000005468B4617469846012600240020029098
:1004100000BF2448007E012802D10220BDE8FE8FE3
:1004200001202049087600BF4CF25030FFF74CFF06
:10043000064686BB012D02D10120029006E0022D66
:1004400002D10220029001E00420029000241EE06C
:100450002201B946C24648465146FFF787FE80B2A0
:100460000190022000FB04B000900199FFF7DAFE32
:100470004CF25030FFF728FF06460B48006920F089
:1004800001000949086106B104E0601CC4B2029889
:100490008442DDDB00BF00BF00200249087600BFB8
:1004A0003046BBE720000020002002400020084921
:1004B000096901F0800151B10649054A51600649B8
:1004C00051601146096901F0800101B101207047B6
:1004D0000020024023016745AB89EFCD0148006849
:1004E00070470000000000200348006803490978B5
:1004F00008440149086070470000002008000020FF
:1005000010B5032000F0B2F8002000F005F800F06C
:1005100029F8002010BD000070B504460E48007890
:100520004FF47A71B1FBF0F00C490968B1FBF0F5BA
:10053000284600F0EAFB08B1012070BD102C07D25C
:1005400000222146501E00F053F80548046001E0E7
:100550000120F2E70020F0E7080000200C00002056
:100560000400002008B500BF1F48806940F001006A
:100570001D4988610846806900F00100009000BFB5
:1005800000BF032000F072F8002211466FF00B004C
:1005900000F02EF8002211466FF00A0000F028F853
:1005A000002211466FF0090000F022F800221146E7
:1005B000501F00F01DF800221146101F00F018F81F
:1005C00000221146901E00F013F800221146501E22
:1005D00000F00EF800BF0549486820F0E06040F0E8
:1005E0000070486000BF08BD0010024000000140DC
:1005F0002DE9F05F80460D461646002700F0CEFB41
:10060000074639462A46334601F00700C0F1070A7B
:10061000BAF1040F02D94FF0040A01E0C0F1070A51
:10062000D14600F1040ABAF1070F02D24FF0000AD6
:1006300001E0A0F1030AD4464FF0010A0AFA09FAD0
:10064000AAF1010A0AEA020A0AFA0CFA4FF0010BAF
:100650000BFA0CFBABF1010B0BEA030B4AEA0B04A0
:100660002146404600F0A2FBBDE8F09F00BF00F02D
:100670000702064B19684FF6FF031940044B0B4362
:1006800043EA0221014B196000BF70470CED00E006
:100690000000FA0570B504460E460025207800F0EB
:1006A0000200022807D14B48406820F0F000A16802
:1006B000084348494860207800F0010000285DD0D8
:1006C0006068012806D14348006800F4003090B902
:1006D000012070BD6068022806D13E48006800F025
:1006E000007040B90120F4E73A48006800F00200C9
:1006F00008B90120EDE73748406820F00300616841
:10070000084334494860FFF7E9FE05466068012860
:1007100010D108E0FFF7E2FE401B41F28831884229
:1007200001D90320D5E72B48406800F00C000428CD
:10073000F0D123E06068022810D108E0FFF7CEFE78
:10074000401B41F28831884201D90320C1E721488A
:10075000406800F00C000828F0D10FE008E0FFF737
:10076000BDFE401B41F28831884201D90320B0E729
:100770001848406800F00C000028F0D1207800F004
:100780000400042807D11348406820F4E060E168C1
:10079000084310494860207800F00800082808D174
:1007A0000C48406820F46050216940EAC1000949C2
:1007B000486000F01BF807494968C1F30311064A75
:1007C000515CC840054908600020FFF7A5FE0020E5
:1007D0007FE70000001002400A1200080C00002011
:1007E00001480068704700000C000020F0B588B098
:1007F00020A6D6E9007CD6E90256CDE9047CCDE9F5
:1008000006560FF2800CDCE90067DCE9025CCDE9FA
:10081000025CCDE9006700210022002300240020B3
:100820001C4D696801F00C05F5B1042D02D0082DAE
:1008300019D101E0184819E004ADC1F38346AC5D5D
:1008400001F4803555B1134DED6A05F00F051DF823
:100850000520114D6543B5FBF2F302E00F4D04FB9B
:1008600005F3184602E000BF0B4800BF00BF08B008
:10087000F0BD000002030405060708090A0B0C0D71
:100880000E0F10100102030405060708090A0B0CDD
:100890000D0E0F100010024000127A0000093D00FA
:1008A000F8B504460025207800F00100002878D033
:1008B000F848406800F00C0004280CD0F548406867
:1008C00000F00C00082811D1F248406800F4803094
:1008D000B0F5803F0AD1EF48006800F400300028EE
:1008E0005FD0606800285CD10120F8BD00BF60685F
:1008F000B0F5803F06D1E748006840F48030E54914
:10090000086028E0606858B9E248006820F4803048
:10091000E04908600846006820F4802008601AE07A
:100920006068B0F5A02F0BD1DA48006840F4802051
:10093000D84908600846006840F4803008600AE042
:10094000D448006820F48030D24908600846006826
:1009500020F48020086000BF606888B1FFF7BEFD0A
:10096000054606E0FFF7BAFD401B642801D90320C5
:10097000BBE7C848006800F400300028F2D010E05F
:10098000FFF7ACFD054606E0FFF7A8FD401B642815
:1009900001D90320A9E7BF48006800F4003000280F
:1009A000F2D1207800F00200022857D1B9484068FF
:1009B00000F00C0050B1B748406800F00C00082867
:1009C00018D1B448406800F4803098B9B148006844
:1009D00000F0020020B12069012801D0012084E745
:1009E000AC48006820F0F800616940EAC100A949FC
:1009F000086033E02069E8B10120A7490860FFF7EB
:100A00006DFD054606E0FFF769FD401B022801D990
:100A100003206AE79F48006800F002000028F2D037
:100A20009C48006820F0F800616940EAC1009949DB
:100A3000086013E0002098490860FFF74FFD054665
:100A400006E0FFF74BFD401B022801D903204CE7CD
:100A50009048006800F002000028F2D1207800F0F1
:100A6000080008282DD1A069B8B101208B49086081
:100A7000FFF734FD054606E0FFF730FD401B022876
:100A800001D9032031E78348406A00F002000028C2
:100A9000F2D0012000F0C0FA13E000207F49086086
:100AA000FFF71CFD054606E0FFF718FD401B022876
:100AB00001D9032019E77748406A00F002000028B6
:100AC000F2D1207800F00400042873D10026714888
:100AD000C06900F0805070B900BF6E48C06940F036
:100AE00080506C49C8610846C06900F08050009091
:100AF00000BF00BF01266A48006800F48070B0B9EA
:100B00006748006840F4807065490860FFF7E6FCBC
:100B1000054606E0FFF7E2FC401B642801D90320EC
:100B2000E3E65F48006800F480700028F2D000BF60
:100B3000E068012806D15748006A40F00100554995
:100B4000086227E0E06858B95248006A20F00100C6
:100B5000504908620846006A20F00400086219E063
:100B6000E06805280BD14B48006A40F00400494971
:100B700008620846006A40F0010008620AE0454841
:100B8000006A20F00100434908620846006A20F02C
:100B90000400086200BFE068A0B1FFF79FFC0546B3
:100BA00009E0FFF79BFC401B41F28831884202D9E3
:100BB00003209AE622E03748006A00F0020000288D
:100BC000EFD012E0FFF78AFC054608E0FFF786FC4D
:100BD000401B41F28831884201D9032085E62D4827
:100BE000006A00F002000028F0D1012E05D129484A
:100BF000C06920F080502749C86100BFE069C8B3D0
:100C00002448406800F00C00082860D0E069022801
:100C100048D1002020490866FFF760FC054606E041
:100C2000FFF75CFC401B022801D903205DE6194850
:100C3000006800F000700028F2D1206AB0F5803F13
:100C400007D11448C06A20F00F00A1680843114979
:100C5000C862D4E9080108430E49496821F47411B7
:100C600008430C49486001200B490866FFF736FC31
:100C7000054607E02DE0FFF731FC401B022801D9B3
:100C8000032032E60348006800F000700028F2D02C
:100C90001FE0000000100240000042428004424277
:100CA0000070004000200C490866FFF717FC05465D
:100CB00006E0FFF713FC401B022801D9032014E6CD
:100CC0000648006800F000700028F2D101E0012021
:100CD0000BE6002009E6000000004242001002403E
:100CE000042808D14FF0E021096941F004014FF0D8
:100CF000E022116107E04FF0E021096921F00401D1
:100D00004FF0E02211617047704770B504462546E8
:100D1000681EB0F1807F01D301200FE0681E4FF004
:100D2000E02148610F214FF0FF3000F03FF8002034
:100D30004FF0E021886107200861002070BD10B5E8
:100D4000FFF7E2FF10BD70B505460E462C4604E0E5
:100D5000204600F076F904F58064B442F8D370BD03
:100D600070B505460E46144662103146284600F01E
:100D70007BF970BD70B505460E461446FFF796FB2D
:100D800062103146284600F083F9FFF72DFB70BD55
:100D900000BFFEE700BFFEE77047000002480068A2
:100DA000C0F30220704700000CED00E010B50028F1
:100DB00007DA0A07140E054A00F00F031B1FD4546C
:100DC00003E00A07130E024A135410BD18ED00E0A9
:100DD00000E400E010B515481549086015481649AB
:100DE00008601249FFF7AFFF19E04FF48062134922
:100DF0000F480068FFF7B4FF4FF480620F490E48B8
:100E00000068FFF7B7FF0A48006800F580600849EE
:100E100008600948006800F58060074908600448D8
:100E2000006807498842E0D3012010BD008C00080B
:100E30001000002000200008140000204C000020BA
:100E400000FC000810B505225649574800F00CF97F
:100E50000A2256A15348FFF799F9002874D1564940
:100E6000087050E0FFF7B6FF012847D153480068EB
:100E70005349086008460068B0F1005F04D3084693
:100E800000685049884200D941E04C4840684C49CC
:100E90004860084640684949884204D34848406849
:100EA0004949884200D932E00020484908701CE0D6
:100EB0003D4800F0C6F8FFF7F9FA062244A13A4887
:100EC00000F0E6F8FFF790FA05223649364800F0C0
:100ED000CBF80C223EA13348FFF758F900B908E0DF
:100EE0003A480078401C394908703848007803288F
:100EF000DEDB00BF314800F07BF808E02E480078C8
:100F0000401C2D4908702C4800780528AADB00BF3A
:100F10000020294908701DE0234800F092F8FFF7EF
:100F2000C5FA05222DA1204800F0B2F8FFF75CFABF
:100F300005221C491C4800F097F80B2227A11948EC
:100F4000FFF724F908B909E027E01B480078401CA6
:100F500019490870184800780328DDDB00BF00BF7E
:100F600000BF00BF00BF00BFBFF34F8F00BF00BF77
:100F700000BF1D48006800F4E0601C490843001DE4
:100F80001949086000BF00BF00BFBFF34F8F00BF0B
:100F900000BF00BF00BF00BFFDE7084800F028F811
:100FA00010BD00004000002000FC00084F54412DFF
:100FB0005354415254000000180000200020000843
:100FC0004C04002000500020008C00081900002074
:100FD0004F54412D53554343455353004F54412DD6
:100FE0004641494C454400000CED00E00000FA0584
:100FF00070B50446206806490840B0F1005F05D18D
:101000006568206880F3088800BFA84770BD0000AD
:101010000000FE2F7047000008B508490968C9089C
:101020004FF47A72B1FBF2F14143009100BF00BF6F
:1010300000994A1E00920029F9D108BD0C00002039
:10104000704710B586B004460020019002900494C9
:1010500001200590FFF72AFA01A902A8FFF76CF911
:10106000FFF7C2F906B010BD30B503460C46154671
:10107000002207E0184600F008F824F812009B1C34
:10108000501C82B2AA42F5DB30BD01460888704789
:101090002DE9F04106460F46154600240AE037F8D0
:1010A00014C06246002331460120FFF7A7F9B61CA1
:1010B000601C84B2AC42F2DB284605EBD0714910CB
:1010C000A5EB410149B137F8140040F0FF04224676
:1010D000002331460120FFF791F9BDE8F08110B5FA
:1010E000FFF702FAFFF72BFE10BD000010B590B01D
:1010F0000A20069001200C900A9010200B900220EC
:101100000D9000210E91C1040F9106A8FFF7C8FBB6
:1011100018B18D2113A000F05FF80F20019002207C
:1011200002900020039004900590002101A8FFF791
:10113000B1FA18B19B210BA000F04EF8FFF750FB5D
:101140004FF47A71B0FBF1F42046FFF7DEFD042086
:10115000FFF7C6FD00220F21501EFFF749FA10B01D
:1011600010BD00002E2E5C557365724F54415C6DAE
:1011700061696E2E630000001248006840F00100B3
:1011800010490860084640680F4908400D4948600A
:10119000084600680D4908400A490860084600688A
:1011A00020F4802008600846406820F4FE00486073
:1011B0004FF41F0088600020C862C803044908601B
:1011C00070470000001002400000FFF8FFFFF6FE2D
:1011D00008ED00E000BFFEE700BFFEE702E008C840
:1011E000121F08C1002AFAD170477047002001E0A1
:1011F00001C1121F002AFBD17047FFF781F9FFF7E9
:1012000075FFFFF71FFE00BFFEE7000000000000B3
:1012100000000102030406070809000000000102A3
:101220000304000044120008000000201C0000001D
:10123000DC110008601200081C0000203C080000BF
:10124000EC11000800000000100000000100000088
:1012500000366E01000000000000000000000000E9
:0400000508000135B9
:00000001FF
